{
  "_format": "hh-sol-artifact-1",
  "contractName": "FCDIDRegistry",
  "sourceName": "contracts/FCDIDRegistry.sol",
  "abi": [
    {
      "inputs": [
        {
          "internalType": "address",
          "name": "initialOwner",
          "type": "address"
        }
      ],
      "stateMutability": "nonpayable",
      "type": "constructor"
    },
    {
      "inputs": [],
      "name": "ERC721EnumerableForbiddenBatchMint",
      "type": "error"
    },
    {
      "inputs": [
        {
          "internalType": "address",
          "name": "sender",
          "type": "address"
        },
        {
          "internalType": "uint256",
          "name": "tokenId",
          "type": "uint256"
        },
        {
          "internalType": "address",
          "name": "owner",
          "type": "address"
        }
      ],
      "name": "ERC721IncorrectOwner",
      "type": "error"
    },
    {
      "inputs": [
        {
          "internalType": "address",
          "name": "operator",
          "type": "address"
        },
        {
          "internalType": "uint256",
          "name": "tokenId",
          "type": "uint256"
        }
      ],
      "name": "ERC721InsufficientApproval",
      "type": "error"
    },
    {
      "inputs": [
        {
          "internalType": "address",
          "name": "approver",
          "type": "address"
        }
      ],
      "name": "ERC721InvalidApprover",
      "type": "error"
    },
    {
      "inputs": [
        {
          "internalType": "address",
          "name": "operator",
          "type": "address"
        }
      ],
      "name": "ERC721InvalidOperator",
      "type": "error"
    },
    {
      "inputs": [
        {
          "internalType": "address",
          "name": "owner",
          "type": "address"
        }
      ],
      "name": "ERC721InvalidOwner",
      "type": "error"
    },
    {
      "inputs": [
        {
          "internalType": "address",
          "name": "receiver",
          "type": "address"
        }
      ],
      "name": "ERC721InvalidReceiver",
      "type": "error"
    },
    {
      "inputs": [
        {
          "internalType": "address",
          "name": "sender",
          "type": "address"
        }
      ],
      "name": "ERC721InvalidSender",
      "type": "error"
    },
    {
      "inputs": [
        {
          "internalType": "uint256",
          "name": "tokenId",
          "type": "uint256"
        }
      ],
      "name": "ERC721NonexistentToken",
      "type": "error"
    },
    {
      "inputs": [
        {
          "internalType": "address",
          "name": "owner",
          "type": "address"
        },
        {
          "internalType": "uint256",
          "name": "index",
          "type": "uint256"
        }
      ],
      "name": "ERC721OutOfBoundsIndex",
      "type": "error"
    },
    {
      "inputs": [
        {
          "internalType": "address",
          "name": "owner",
          "type": "address"
        }
      ],
      "name": "OwnableInvalidOwner",
      "type": "error"
    },
    {
      "inputs": [
        {
          "internalType": "address",
          "name": "account",
          "type": "address"
        }
      ],
      "name": "OwnableUnauthorizedAccount",
      "type": "error"
    },
    {
      "anonymous": false,
      "inputs": [
        {
          "indexed": true,
          "internalType": "address",
          "name": "owner",
          "type": "address"
        },
        {
          "indexed": true,
          "internalType": "address",
          "name": "approved",
          "type": "address"
        },
        {
          "indexed": true,
          "internalType": "uint256",
          "name": "tokenId",
          "type": "uint256"
        }
      ],
      "name": "Approval",
      "type": "event"
    },
    {
      "anonymous": false,
      "inputs": [
        {
          "indexed": true,
          "internalType": "address",
          "name": "owner",
          "type": "address"
        },
        {
          "indexed": true,
          "internalType": "address",
          "name": "operator",
          "type": "address"
        },
        {
          "indexed": false,
          "internalType": "bool",
          "name": "approved",
          "type": "bool"
        }
      ],
      "name": "ApprovalForAll",
      "type": "event"
    },
    {
      "anonymous": false,
      "inputs": [
        {
          "indexed": true,
          "internalType": "bytes32",
          "name": "commitment",
          "type": "bytes32"
        },
        {
          "indexed": false,
          "internalType": "uint256",
          "name": "timestamp",
          "type": "uint256"
        }
      ],
      "name": "CommitmentMade",
      "type": "event"
    },
    {
      "anonymous": false,
      "inputs": [
        {
          "indexed": false,
          "internalType": "string",
          "name": "name",
          "type": "string"
        },
        {
          "indexed": true,
          "internalType": "uint256",
          "name": "tokenId",
          "type": "uint256"
        },
        {
          "indexed": true,
          "internalType": "address",
          "name": "owner",
          "type": "address"
        },
        {
          "indexed": false,
          "internalType": "uint256",
          "name": "expiry",
          "type": "uint256"
        }
      ],
      "name": "DomainRegistered",
      "type": "event"
    },
    {
      "anonymous": false,
      "inputs": [
        {
          "indexed": false,
          "internalType": "string",
          "name": "name",
          "type": "string"
        },
        {
          "indexed": true,
          "internalType": "uint256",
          "name": "tokenId",
          "type": "uint256"
        },
        {
          "indexed": false,
          "internalType": "uint256",
          "name": "newExpiry",
          "type": "uint256"
        }
      ],
      "name": "DomainRenewed",
      "type": "event"
    },
    {
      "anonymous": false,
      "inputs": [
        {
          "indexed": true,
          "internalType": "address",
          "name": "previousOwner",
          "type": "address"
        },
        {
          "indexed": true,
          "internalType": "address",
          "name": "newOwner",
          "type": "address"
        }
      ],
      "name": "OwnershipTransferred",
      "type": "event"
    },
    {
      "anonymous": false,
      "inputs": [
        {
          "indexed": true,
          "internalType": "address",
          "name": "from",
          "type": "address"
        },
        {
          "indexed": true,
          "internalType": "address",
          "name": "to",
          "type": "address"
        },
        {
          "indexed": true,
          "internalType": "uint256",
          "name": "tokenId",
          "type": "uint256"
        }
      ],
      "name": "Transfer",
      "type": "event"
    },
    {
      "inputs": [],
      "name": "MAX_COMMIT_AGE",
      "outputs": [
        {
          "internalType": "uint256",
          "name": "",
          "type": "uint256"
        }
      ],
      "stateMutability": "view",
      "type": "function"
    },
    {
      "inputs": [],
      "name": "MIN_COMMIT_AGE",
      "outputs": [
        {
          "internalType": "uint256",
          "name": "",
          "type": "uint256"
        }
      ],
      "stateMutability": "view",
      "type": "function"
    },
    {
      "inputs": [],
      "name": "PRICE_MID",
      "outputs": [
        {
          "internalType": "uint256",
          "name": "",
          "type": "uint256"
        }
      ],
      "stateMutability": "view",
      "type": "function"
    },
    {
      "inputs": [],
      "name": "PRICE_PREMIUM",
      "outputs": [
        {
          "internalType": "uint256",
          "name": "",
          "type": "uint256"
        }
      ],
      "stateMutability": "view",
      "type": "function"
    },
    {
      "inputs": [],
      "name": "PRICE_STANDARD",
      "outputs": [
        {
          "internalType": "uint256",
          "name": "",
          "type": "uint256"
        }
      ],
      "stateMutability": "view",
      "type": "function"
    },
    {
      "inputs": [
        {
          "internalType": "address",
          "name": "to",
          "type": "address"
        },
        {
          "internalType": "uint256",
          "name": "tokenId",
          "type": "uint256"
        }
      ],
      "name": "approve",
      "outputs": [],
      "stateMutability": "nonpayable",
      "type": "function"
    },
    {
      "inputs": [
        {
          "internalType": "address",
          "name": "owner",
          "type": "address"
        }
      ],
      "name": "balanceOf",
      "outputs": [
        {
          "internalType": "uint256",
          "name": "",
          "type": "uint256"
        }
      ],
      "stateMutability": "view",
      "type": "function"
    },
    {
      "inputs": [
        {
          "internalType": "bytes32",
          "name": "commitment",
          "type": "bytes32"
        }
      ],
      "name": "commit",
      "outputs": [],
      "stateMutability": "nonpayable",
      "type": "function"
    },
    {
      "inputs": [
        {
          "internalType": "bytes32",
          "name": "",
          "type": "bytes32"
        }
      ],
      "name": "commitments",
      "outputs": [
        {
          "internalType": "uint256",
          "name": "",
          "type": "uint256"
        }
      ],
      "stateMutability": "view",
      "type": "function"
    },
    {
      "inputs": [
        {
          "internalType": "uint256",
          "name": "tokenId",
          "type": "uint256"
        }
      ],
      "name": "getApproved",
      "outputs": [
        {
          "internalType": "address",
          "name": "",
          "type": "address"
        }
      ],
      "stateMutability": "view",
      "type": "function"
    },
    {
      "inputs": [
        {
          "internalType": "string",
          "name": "name",
          "type": "string"
        }
      ],
      "name": "getPrice",
      "outputs": [
        {
          "internalType": "uint256",
          "name": "",
          "type": "uint256"
        }
      ],
      "stateMutability": "pure",
      "type": "function"
    },
    {
      "inputs": [
        {
          "internalType": "address",
          "name": "owner",
          "type": "address"
        },
        {
          "internalType": "address",
          "name": "operator",
          "type": "address"
        }
      ],
      "name": "isApprovedForAll",
      "outputs": [
        {
          "internalType": "bool",
          "name": "",
          "type": "bool"
        }
      ],
      "stateMutability": "view",
      "type": "function"
    },
    {
      "inputs": [],
      "name": "name",
      "outputs": [
        {
          "internalType": "string",
          "name": "",
          "type": "string"
        }
      ],
      "stateMutability": "view",
      "type": "function"
    },
    {
      "inputs": [
        {
          "internalType": "string",
          "name": "",
          "type": "string"
        }
      ],
      "name": "nameToTokenId",
      "outputs": [
        {
          "internalType": "uint256",
          "name": "",
          "type": "uint256"
        }
      ],
      "stateMutability": "view",
      "type": "function"
    },
    {
      "inputs": [],
      "name": "owner",
      "outputs": [
        {
          "internalType": "address",
          "name": "",
          "type": "address"
        }
      ],
      "stateMutability": "view",
      "type": "function"
    },
    {
      "inputs": [
        {
          "internalType": "uint256",
          "name": "tokenId",
          "type": "uint256"
        }
      ],
      "name": "ownerOf",
      "outputs": [
        {
          "internalType": "address",
          "name": "",
          "type": "address"
        }
      ],
      "stateMutability": "view",
      "type": "function"
    },
    {
      "inputs": [
        {
          "internalType": "string",
          "name": "name",
          "type": "string"
        },
        {
          "internalType": "bytes32",
          "name": "salt",
          "type": "bytes32"
        },
        {
          "internalType": "uint256",
          "name": "durationYears",
          "type": "uint256"
        }
      ],
      "name": "register",
      "outputs": [],
      "stateMutability": "payable",
      "type": "function"
    },
    {
      "inputs": [
        {
          "internalType": "string",
          "name": "name",
          "type": "string"
        },
        {
          "internalType": "uint256",
          "name": "durationYears",
          "type": "uint256"
        }
      ],
      "name": "renew",
      "outputs": [],
      "stateMutability": "payable",
      "type": "function"
    },
    {
      "inputs": [],
      "name": "renounceOwnership",
      "outputs": [],
      "stateMutability": "nonpayable",
      "type": "function"
    },
    {
      "inputs": [
        {
          "internalType": "address",
          "name": "from",
          "type": "address"
        },
        {
          "internalType": "address",
          "name": "to",
          "type": "address"
        },
        {
          "internalType": "uint256",
          "name": "tokenId",
          "type": "uint256"
        }
      ],
      "name": "safeTransferFrom",
      "outputs": [],
      "stateMutability": "nonpayable",
      "type": "function"
    },
    {
      "inputs": [
        {
          "internalType": "address",
          "name": "from",
          "type": "address"
        },
        {
          "internalType": "address",
          "name": "to",
          "type": "address"
        },
        {
          "internalType": "uint256",
          "name": "tokenId",
          "type": "uint256"
        },
        {
          "internalType": "bytes",
          "name": "data",
          "type": "bytes"
        }
      ],
      "name": "safeTransferFrom",
      "outputs": [],
      "stateMutability": "nonpayable",
      "type": "function"
    },
    {
      "inputs": [
        {
          "internalType": "address",
          "name": "operator",
          "type": "address"
        },
        {
          "internalType": "bool",
          "name": "approved",
          "type": "bool"
        }
      ],
      "name": "setApprovalForAll",
      "outputs": [],
      "stateMutability": "nonpayable",
      "type": "function"
    },
    {
      "inputs": [
        {
          "internalType": "bytes4",
          "name": "interfaceId",
          "type": "bytes4"
        }
      ],
      "name": "supportsInterface",
      "outputs": [
        {
          "internalType": "bool",
          "name": "",
          "type": "bool"
        }
      ],
      "stateMutability": "view",
      "type": "function"
    },
    {
      "inputs": [],
      "name": "symbol",
      "outputs": [
        {
          "internalType": "string",
          "name": "",
          "type": "string"
        }
      ],
      "stateMutability": "view",
      "type": "function"
    },
    {
      "inputs": [
        {
          "internalType": "uint256",
          "name": "index",
          "type": "uint256"
        }
      ],
      "name": "tokenByIndex",
      "outputs": [
        {
          "internalType": "uint256",
          "name": "",
          "type": "uint256"
        }
      ],
      "stateMutability": "view",
      "type": "function"
    },
    {
      "inputs": [
        {
          "internalType": "uint256",
          "name": "",
          "type": "uint256"
        }
      ],
      "name": "tokenExpiry",
      "outputs": [
        {
          "internalType": "uint256",
          "name": "",
          "type": "uint256"
        }
      ],
      "stateMutability": "view",
      "type": "function"
    },
    {
      "inputs": [
        {
          "internalType": "uint256",
          "name": "",
          "type": "uint256"
        }
      ],
      "name": "tokenIdToName",
      "outputs": [
        {
          "internalType": "string",
          "name": "",
          "type": "string"
        }
      ],
      "stateMutability": "view",
      "type": "function"
    },
    {
      "inputs": [
        {
          "internalType": "address",
          "name": "owner",
          "type": "address"
        },
        {
          "internalType": "uint256",
          "name": "index",
          "type": "uint256"
        }
      ],
      "name": "tokenOfOwnerByIndex",
      "outputs": [
        {
          "internalType": "uint256",
          "name": "",
          "type": "uint256"
        }
      ],
      "stateMutability": "view",
      "type": "function"
    },
    {
      "inputs": [
        {
          "internalType": "uint256",
          "name": "tokenId",
          "type": "uint256"
        }
      ],
      "name": "tokenURI",
      "outputs": [
        {
          "internalType": "string",
          "name": "",
          "type": "string"
        }
      ],
      "stateMutability": "view",
      "type": "function"
    },
    {
      "inputs": [],
      "name": "totalSupply",
      "outputs": [
        {
          "internalType": "uint256",
          "name": "",
          "type": "uint256"
        }
      ],
      "stateMutability": "view",
      "type": "function"
    },
    {
      "inputs": [
        {
          "internalType": "address",
          "name": "from",
          "type": "address"
        },
        {
          "internalType": "address",
          "name": "to",
          "type": "address"
        },
        {
          "internalType": "uint256",
          "name": "tokenId",
          "type": "uint256"
        }
      ],
      "name": "transferFrom",
      "outputs": [],
      "stateMutability": "nonpayable",
      "type": "function"
    },
    {
      "inputs": [
        {
          "internalType": "address",
          "name": "newOwner",
          "type": "address"
        }
      ],
      "name": "transferOwnership",
      "outputs": [],
      "stateMutability": "nonpayable",
      "type": "function"
    },
    {
      "inputs": [],
      "name": "withdraw",
      "outputs": [],
      "stateMutability": "nonpayable",
      "type": "function"
    }
  ],
  "bytecode": "0x608060405234801562000010575f80fd5b50604051620045eb380380620045eb833981810160405281019062000036919062000284565b806040518060400160405280601081526020017f4d6f6e74736572726174204643444944000000000000000000000000000000008152506040518060400160405280600581526020017f4643444944000000000000000000000000000000000000000000000000000000815250815f9081620000b3919062000518565b508060019081620000c5919062000518565b5050505f73ffffffffffffffffffffffffffffffffffffffff168173ffffffffffffffffffffffffffffffffffffffff16036200013b575f6040517f1e4fbdf70000000000000000000000000000000000000000000000000000000081526004016200013291906200060d565b60405180910390fd5b6200014c816200015c60201b60201c565b506001600b819055505062000628565b5f600a5f9054906101000a900473ffffffffffffffffffffffffffffffffffffffff16905081600a5f6101000a81548173ffffffffffffffffffffffffffffffffffffffff021916908373ffffffffffffffffffffffffffffffffffffffff1602179055508173ffffffffffffffffffffffffffffffffffffffff168173ffffffffffffffffffffffffffffffffffffffff167f8be0079c531659141344cd1fd0a4f28419497f9722a3daafe3b4186f6b6457e060405160405180910390a35050565b5f80fd5b5f73ffffffffffffffffffffffffffffffffffffffff82169050919050565b5f6200024e8262000223565b9050919050565b620002608162000242565b81146200026b575f80fd5b50565b5f815190506200027e8162000255565b92915050565b5f602082840312156200029c576200029b6200021f565b5b5f620002ab848285016200026e565b91505092915050565b5f81519050919050565b7f4e487b71000000000000000000000000000000000000000000000000000000005f52604160045260245ffd5b7f4e487b71000000000000000000000000000000000000000000000000000000005f52602260045260245ffd5b5f60028204905060018216806200033057607f821691505b602082108103620003465762000345620002eb565b5b50919050565b5f819050815f5260205f209050919050565b5f6020601f8301049050919050565b5f82821b905092915050565b5f60088302620003aa7fffffffffffffffffffffffffffffffffffffffffffffffffffffffffffffffff826200036d565b620003b686836200036d565b95508019841693508086168417925050509392505050565b5f819050919050565b5f819050919050565b5f62000400620003fa620003f484620003ce565b620003d7565b620003ce565b9050919050565b5f819050919050565b6200041b83620003e0565b620004336200042a8262000407565b84845462000379565b825550505050565b5f90565b620004496200043b565b6200045681848462000410565b505050565b5b818110156200047d57620004715f826200043f565b6001810190506200045c565b5050565b601f821115620004cc5762000496816200034c565b620004a1846200035e565b81016020851015620004b1578190505b620004c9620004c0856200035e565b8301826200045b565b50505b505050565b5f82821c905092915050565b5f620004ee5f1984600802620004d1565b1980831691505092915050565b5f620005088383620004dd565b9150826002028217905092915050565b6200052382620002b4565b67ffffffffffffffff8111156200053f576200053e620002be565b5b6200054b825462000318565b6200055882828562000481565b5f60209050601f8311600181146200058e575f841562000579578287015190505b620005858582620004fb565b865550620005f4565b601f1984166200059e866200034c565b5f5b82811015620005c757848901518255600182019150602085019450602081019050620005a0565b86831015620005e75784890151620005e3601f891682620004dd565b8355505b6001600288020188555050505b505050505050565b620006078162000242565b82525050565b5f602082019050620006225f830184620005fc565b92915050565b613fb580620006365f395ff3fe6080604052600436106101ec575f3560e01c8063715018a61161010c578063b88d4fde1161009f578063dd0012541161006e578063dd00125414610700578063e985e9c51461073c578063efe7926814610778578063f14fcbc8146107a2578063f2fde38b146107ca576101ec565b8063b88d4fde14610636578063bcedc05f1461065e578063c87b56dd14610688578063da2bfdb1146106c4576101ec565b8063a22cb465116100db578063a22cb4651461058c578063aade7939146105b4578063acced426146105de578063acf1a8411461061a576101ec565b8063715018a6146104e6578063839df945146104fc5780638da5cb5b1461053857806395d89b4114610562576101ec565b80632f745c5911610184578063524f388911610153578063524f3889146104085780635487e055146104445780636352211e1461046e57806370a08231146104aa576101ec565b80632f745c59146103525780633ccfd60b1461038e57806342842e0e146103a45780634f6ccce7146103cc576101ec565b8063095ea7b3116101c0578063095ea7b3146102ae57806318160ddd146102d657806323b872dd146103005780632ac358c114610328576101ec565b8062882f57146101f057806301ffc9a71461020c57806306fdde0314610248578063081812fc14610272575b5f80fd5b61020a60048036038101906102059190612c8c565b6107f2565b005b348015610217575f80fd5b50610232600480360381019061022d9190612d52565b610c18565b60405161023f9190612d97565b60405180910390f35b348015610253575f80fd5b5061025c610c91565b6040516102699190612e3a565b60405180910390f35b34801561027d575f80fd5b5061029860048036038101906102939190612e5a565b610d20565b6040516102a59190612ec4565b60405180910390f35b3480156102b9575f80fd5b506102d460048036038101906102cf9190612f07565b610d3b565b005b3480156102e1575f80fd5b506102ea610d51565b6040516102f79190612f54565b60405180910390f35b34801561030b575f80fd5b5061032660048036038101906103219190612f6d565b610d5d565b005b348015610333575f80fd5b5061033c610e5c565b6040516103499190612f54565b60405180910390f35b34801561035d575f80fd5b5061037860048036038101906103739190612f07565b610e61565b6040516103859190612f54565b60405180910390f35b348015610399575f80fd5b506103a2610f05565b005b3480156103af575f80fd5b506103ca60048036038101906103c59190612f6d565b610fa1565b005b3480156103d7575f80fd5b506103f260048036038101906103ed9190612e5a565b610fc0565b6040516103ff9190612f54565b60405180910390f35b348015610413575f80fd5b5061042e600480360381019061042991906130e5565b611032565b60405161043b9190612f54565b60405180910390f35b34801561044f575f80fd5b5061045861107f565b6040516104659190612f54565b60405180910390f35b348015610479575f80fd5b50610494600480360381019061048f9190612e5a565b61108c565b6040516104a19190612ec4565b60405180910390f35b3480156104b5575f80fd5b506104d060048036038101906104cb919061312c565b61109d565b6040516104dd9190612f54565b60405180910390f35b3480156104f1575f80fd5b506104fa611153565b005b348015610507575f80fd5b50610522600480360381019061051d9190613157565b611166565b60405161052f9190612f54565b60405180910390f35b348015610543575f80fd5b5061054c61117b565b6040516105599190612ec4565b60405180910390f35b34801561056d575f80fd5b506105766111a3565b6040516105839190612e3a565b60405180910390f35b348015610597575f80fd5b506105b260048036038101906105ad91906131ac565b611233565b005b3480156105bf575f80fd5b506105c8611249565b6040516105d59190612f54565b60405180910390f35b3480156105e9575f80fd5b5061060460048036038101906105ff9190612e5a565b611256565b6040516106119190612f54565b60405180910390f35b610634600480360381019061062f91906131ea565b61126b565b005b348015610641575f80fd5b5061065c600480360381019061065791906132e5565b61151a565b005b348015610669575f80fd5b5061067261153f565b60405161067f9190612f54565b60405180910390f35b348015610693575f80fd5b506106ae60048036038101906106a99190612e5a565b611546565b6040516106bb9190612e3a565b60405180910390f35b3480156106cf575f80fd5b506106ea60048036038101906106e59190612e5a565b6115ac565b6040516106f79190612e3a565b60405180910390f35b34801561070b575f80fd5b50610726600480360381019061072191906130e5565b611647565b6040516107339190612f54565b60405180910390f35b348015610747575f80fd5b50610762600480360381019061075d9190613365565b611674565b60405161076f9190612d97565b60405180910390f35b348015610783575f80fd5b5061078c611702565b6040516107999190612f54565b60405180910390f35b3480156107ad575f80fd5b506107c860048036038101906107c39190613157565b61170f565b005b3480156107d5575f80fd5b506107f060048036038101906107eb919061312c565b6117dc565b005b5f8484338560405160200161080a9493929190613436565b6040516020818303038152906040528051906020012090505f600c5f8381526020019081526020015f205490505f8111610879576040517f08c379a0000000000000000000000000000000000000000000000000000000008152600401610870906134ba565b60405180910390fd5b603c816108869190613505565b4210156108c8576040517f08c379a00000000000000000000000000000000000000000000000000000000081526004016108bf906135a8565b60405180910390fd5b62015180816108d79190613505565b421115610919576040517f08c379a000000000000000000000000000000000000000000000000000000000815260040161091090613610565b60405180910390fd5b600c5f8381526020019081526020015f205f90555f600d878760405161094092919061362e565b9081526020016040518091039020541461098f576040517f08c379a000000000000000000000000000000000000000000000000000000000815260040161098690613690565b60405180910390fd5b5f86869050116109d4576040517f08c379a00000000000000000000000000000000000000000000000000000000081526004016109cb906136f8565b60405180910390fd5b5f831180156109e45750600a8311155b610a23576040517f08c379a0000000000000000000000000000000000000000000000000000000008152600401610a1a90613760565b60405180910390fd5b5f610a7087878080601f0160208091040260200160405190810160405280939291908181526020018383808284375f81840152601f19601f82011690508083019250505050505050611032565b90505f8482610a7f919061377e565b905080341015610ac4576040517f08c379a0000000000000000000000000000000000000000000000000000000008152600401610abb90613809565b60405180910390fd5b5f600b5f815480929190610ad790613827565b91905055905080600d8a8a604051610af092919061362e565b9081526020016040518091039020819055508888600e5f8481526020019081526020015f209182610b22929190613a72565b505f6301e1338087610b34919061377e565b42610b3f9190613505565b905080600f5f8481526020019081526020015f2081905550610b613383611860565b82341115610bb9573373ffffffffffffffffffffffffffffffffffffffff166108fc8434610b8f9190613b3f565b90811502906040515f60405180830381858888f19350505050158015610bb7573d5f803e3d5ffd5b505b3373ffffffffffffffffffffffffffffffffffffffff16827f951307fdd9dfc2a4ef4c8376bb35a36cdcfae7e683b21f3d3756ef72a40e22b08c8c85604051610c0493929190613b9e565b60405180910390a350505050505050505050565b5f7f780e9d63000000000000000000000000000000000000000000000000000000007bffffffffffffffffffffffffffffffffffffffffffffffffffffffff1916827bffffffffffffffffffffffffffffffffffffffffffffffffffffffff19161480610c8a5750610c898261187d565b5b9050919050565b60605f8054610c9f906138a5565b80601f0160208091040260200160405190810160405280929190818152602001828054610ccb906138a5565b8015610d165780601f10610ced57610100808354040283529160200191610d16565b820191905f5260205f20905b815481529060010190602001808311610cf957829003601f168201915b5050505050905090565b5f610d2a8261195e565b50610d34826119e4565b9050919050565b610d4d8282610d48611a1d565b611a24565b5050565b5f600880549050905090565b5f73ffffffffffffffffffffffffffffffffffffffff168273ffffffffffffffffffffffffffffffffffffffff1603610dcd575f6040517f64a0ae92000000000000000000000000000000000000000000000000000000008152600401610dc49190612ec4565b60405180910390fd5b5f610de08383610ddb611a1d565b611a36565b90508373ffffffffffffffffffffffffffffffffffffffff168173ffffffffffffffffffffffffffffffffffffffff1614610e56578382826040517f64283d7b000000000000000000000000000000000000000000000000000000008152600401610e4d93929190613bce565b60405180910390fd5b50505050565b603c81565b5f610e6b8361109d565b8210610eb05782826040517fa57d13dc000000000000000000000000000000000000000000000000000000008152600401610ea7929190613c03565b60405180910390fd5b60065f8473ffffffffffffffffffffffffffffffffffffffff1673ffffffffffffffffffffffffffffffffffffffff1681526020019081526020015f205f8381526020019081526020015f2054905092915050565b610f0d611b50565b5f4790505f8111610f53576040517f08c379a0000000000000000000000000000000000000000000000000000000008152600401610f4a90613c74565b60405180910390fd5b610f5b61117b565b73ffffffffffffffffffffffffffffffffffffffff166108fc8290811502906040515f60405180830381858888f19350505050158015610f9d573d5f803e3d5ffd5b5050565b610fbb83838360405180602001604052805f81525061151a565b505050565b5f610fc9610d51565b821061100e575f826040517fa57d13dc000000000000000000000000000000000000000000000000000000008152600401611005929190613c03565b60405180910390fd5b6008828154811061102257611021613c92565b5b905f5260205f2001549050919050565b5f8082519050600381116110525768bdbc41e0348b30000091505061107a565b6004810361106c57683635c9adc5dea0000091505061107a565b68056bc75e2d631000009150505b919050565b683635c9adc5dea0000081565b5f6110968261195e565b9050919050565b5f8073ffffffffffffffffffffffffffffffffffffffff168273ffffffffffffffffffffffffffffffffffffffff160361110e575f6040517f89c62b640000000000000000000000000000000000000000000000000000000081526004016111059190612ec4565b60405180910390fd5b60035f8373ffffffffffffffffffffffffffffffffffffffff1673ffffffffffffffffffffffffffffffffffffffff1681526020019081526020015f20549050919050565b61115b611b50565b6111645f611bd7565b565b600c602052805f5260405f205f915090505481565b5f600a5f9054906101000a900473ffffffffffffffffffffffffffffffffffffffff16905090565b6060600180546111b2906138a5565b80601f01602080910402602001604051908101604052809291908181526020018280546111de906138a5565b80156112295780601f1061120057610100808354040283529160200191611229565b820191905f5260205f20905b81548152906001019060200180831161120c57829003601f168201915b5050505050905090565b61124561123e611a1d565b8383611c9a565b5050565b68bdbc41e0348b30000081565b600f602052805f5260405f205f915090505481565b5f600d848460405161127e92919061362e565b90815260200160405180910390205490505f81036112d1576040517f08c379a00000000000000000000000000000000000000000000000000000000081526004016112c890613d09565b60405180910390fd5b3373ffffffffffffffffffffffffffffffffffffffff166112f18261108c565b73ffffffffffffffffffffffffffffffffffffffff1614611347576040517f08c379a000000000000000000000000000000000000000000000000000000000815260040161133e90613d71565b60405180910390fd5b5f821180156113575750600a8211155b611396576040517f08c379a000000000000000000000000000000000000000000000000000000000815260040161138d90613760565b60405180910390fd5b5f6113e385858080601f0160208091040260200160405190810160405280939291908181526020018383808284375f81840152601f19601f82011690508083019250505050505050611032565b90505f83826113f2919061377e565b905080341015611437576040517f08c379a000000000000000000000000000000000000000000000000000000000815260040161142e90613809565b60405180910390fd5b6301e1338084611447919061377e565b600f5f8581526020019081526020015f205f8282546114669190613505565b92505081905550803411156114c5573373ffffffffffffffffffffffffffffffffffffffff166108fc823461149b9190613b3f565b90811502906040515f60405180830381858888f193505050501580156114c3573d5f803e3d5ffd5b505b827fdf76eb4105f482060da707bcd4db6ccb391d9bbce434990417d45cd96724bcd78787600f5f8881526020019081526020015f205460405161150a93929190613b9e565b60405180910390a2505050505050565b611525848484610d5d565b611539611530611a1d565b85858585611e73565b50505050565b6201518081565b60606115518261195e565b505f61155b61201f565b90505f8151116115795760405180602001604052805f8152506115a4565b8061158384612035565b604051602001611594929190613dbf565b6040516020818303038152906040525b915050919050565b600e602052805f5260405f205f9150905080546115c8906138a5565b80601f01602080910402602001604051908101604052809291908181526020018280546115f4906138a5565b801561163f5780601f106116165761010080835404028352916020019161163f565b820191905f5260205f20905b81548152906001019060200180831161162257829003601f168201915b505050505081565b600d818051602081018201805184825260208301602085012081835280955050505050505f915090505481565b5f60055f8473ffffffffffffffffffffffffffffffffffffffff1673ffffffffffffffffffffffffffffffffffffffff1681526020019081526020015f205f8373ffffffffffffffffffffffffffffffffffffffff1673ffffffffffffffffffffffffffffffffffffffff1681526020019081526020015f205f9054906101000a900460ff16905092915050565b68056bc75e2d6310000081565b5f600c5f8381526020019081526020015f2054148061174c57504262015180600c5f8481526020019081526020015f205461174a9190613505565b105b61178b576040517f08c379a000000000000000000000000000000000000000000000000000000000815260040161178290613e2c565b60405180910390fd5b42600c5f8381526020019081526020015f2081905550807f3baaebf455ed10db8339f97876751c37beed8e2130e150d2becc59d4c66159e9426040516117d19190612f54565b60405180910390a250565b6117e4611b50565b5f73ffffffffffffffffffffffffffffffffffffffff168173ffffffffffffffffffffffffffffffffffffffff1603611854575f6040517f1e4fbdf700000000000000000000000000000000000000000000000000000000815260040161184b9190612ec4565b60405180910390fd5b61185d81611bd7565b50565b611879828260405180602001604052805f8152506120ff565b5050565b5f7f80ac58cd000000000000000000000000000000000000000000000000000000007bffffffffffffffffffffffffffffffffffffffffffffffffffffffff1916827bffffffffffffffffffffffffffffffffffffffffffffffffffffffff1916148061194757507f5b5e139f000000000000000000000000000000000000000000000000000000007bffffffffffffffffffffffffffffffffffffffffffffffffffffffff1916827bffffffffffffffffffffffffffffffffffffffffffffffffffffffff1916145b80611957575061195682612122565b5b9050919050565b5f806119698361218b565b90505f73ffffffffffffffffffffffffffffffffffffffff168173ffffffffffffffffffffffffffffffffffffffff16036119db57826040517f7e2732890000000000000000000000000000000000000000000000000000000081526004016119d29190612f54565b60405180910390fd5b80915050919050565b5f60045f8381526020019081526020015f205f9054906101000a900473ffffffffffffffffffffffffffffffffffffffff169050919050565b5f33905090565b611a3183838360016121c4565b505050565b5f80611a43858585612383565b90505f73ffffffffffffffffffffffffffffffffffffffff168173ffffffffffffffffffffffffffffffffffffffff1603611a8657611a818461258e565b611ac5565b8473ffffffffffffffffffffffffffffffffffffffff168173ffffffffffffffffffffffffffffffffffffffff1614611ac457611ac381856125d2565b5b5b5f73ffffffffffffffffffffffffffffffffffffffff168573ffffffffffffffffffffffffffffffffffffffff1603611b0657611b01846126a9565b611b45565b8473ffffffffffffffffffffffffffffffffffffffff168173ffffffffffffffffffffffffffffffffffffffff1614611b4457611b438585612769565b5b5b809150509392505050565b611b58611a1d565b73ffffffffffffffffffffffffffffffffffffffff16611b7661117b565b73ffffffffffffffffffffffffffffffffffffffff1614611bd557611b99611a1d565b6040517f118cdaa7000000000000000000000000000000000000000000000000000000008152600401611bcc9190612ec4565b60405180910390fd5b565b5f600a5f9054906101000a900473ffffffffffffffffffffffffffffffffffffffff16905081600a5f6101000a81548173ffffffffffffffffffffffffffffffffffffffff021916908373ffffffffffffffffffffffffffffffffffffffff1602179055508173ffffffffffffffffffffffffffffffffffffffff168173ffffffffffffffffffffffffffffffffffffffff167f8be0079c531659141344cd1fd0a4f28419497f9722a3daafe3b4186f6b6457e060405160405180910390a35050565b5f73ffffffffffffffffffffffffffffffffffffffff168373ffffffffffffffffffffffffffffffffffffffff1603611d0a575f6040517fa9fbf51f000000000000000000000000000000000000000000000000000000008152600401611d019190612ec4565b60405180910390fd5b5f73ffffffffffffffffffffffffffffffffffffffff168273ffffffffffffffffffffffffffffffffffffffff1603611d7a57816040517f5b08ba18000000000000000000000000000000000000000000000000000000008152600401611d719190612ec4565b60405180910390fd5b8060055f8573ffffffffffffffffffffffffffffffffffffffff1673ffffffffffffffffffffffffffffffffffffffff1681526020019081526020015f205f8473ffffffffffffffffffffffffffffffffffffffff1673ffffffffffffffffffffffffffffffffffffffff1681526020019081526020015f205f6101000a81548160ff0219169083151502179055508173ffffffffffffffffffffffffffffffffffffffff168373ffffffffffffffffffffffffffffffffffffffff167f17307eab39ab6107e8899845ad3d59bd9653f200f220920489ca2b5937696c3183604051611e669190612d97565b60405180910390a3505050565b5f8373ffffffffffffffffffffffffffffffffffffffff163b1115612018578273ffffffffffffffffffffffffffffffffffffffff1663150b7a02868685856040518563ffffffff1660e01b8152600401611ed19493929190613e9c565b6020604051808303815f875af1925050508015611f0c57506040513d601f19601f82011682018060405250810190611f099190613efa565b60015b611f8d573d805f8114611f3a576040519150601f19603f3d011682016040523d82523d5f602084013e611f3f565b606091505b505f815103611f8557836040517f64a0ae92000000000000000000000000000000000000000000000000000000008152600401611f7c9190612ec4565b60405180910390fd5b805160208201fd5b63150b7a0260e01b7bffffffffffffffffffffffffffffffffffffffffffffffffffffffff1916817bffffffffffffffffffffffffffffffffffffffffffffffffffffffff19161461201657836040517f64a0ae9200000000000000000000000000000000000000000000000000000000815260040161200d9190612ec4565b60405180910390fd5b505b5050505050565b606060405180602001604052805f815250905090565b60605f6001612043846127ed565b0190505f8167ffffffffffffffff81111561206157612060612fc1565b5b6040519080825280601f01601f1916602001820160405280156120935781602001600182028036833780820191505090505b5090505f82602083010190505b6001156120f4578080600190039150507f3031323334353637383961626364656600000000000000000000000000000000600a86061a8153600a85816120e9576120e8613f25565b5b0494505f85036120a0575b819350505050919050565b612109838361293e565b61211d612114611a1d565b5f858585611e73565b505050565b5f7f01ffc9a7000000000000000000000000000000000000000000000000000000007bffffffffffffffffffffffffffffffffffffffffffffffffffffffff1916827bffffffffffffffffffffffffffffffffffffffffffffffffffffffff1916149050919050565b5f60025f8381526020019081526020015f205f9054906101000a900473ffffffffffffffffffffffffffffffffffffffff169050919050565b80806121fc57505f73ffffffffffffffffffffffffffffffffffffffff168273ffffffffffffffffffffffffffffffffffffffff1614155b1561232e575f61220b8461195e565b90505f73ffffffffffffffffffffffffffffffffffffffff168373ffffffffffffffffffffffffffffffffffffffff161415801561227557508273ffffffffffffffffffffffffffffffffffffffff168173ffffffffffffffffffffffffffffffffffffffff1614155b801561228857506122868184611674565b155b156122ca57826040517fa9fbf51f0000000000000000000000000000000000000000000000000000000081526004016122c19190612ec4565b60405180910390fd5b811561232c57838573ffffffffffffffffffffffffffffffffffffffff168273ffffffffffffffffffffffffffffffffffffffff167f8c5be1e5ebec7d5bd14f71427d1e84f3dd0314c0f7b2291e5b200ac8c7c3b92560405160405180910390a45b505b8360045f8581526020019081526020015f205f6101000a81548173ffffffffffffffffffffffffffffffffffffffff021916908373ffffffffffffffffffffffffffffffffffffffff16021790555050505050565b5f8061238e8461218b565b90505f73ffffffffffffffffffffffffffffffffffffffff168373ffffffffffffffffffffffffffffffffffffffff16146123cf576123ce818486612a31565b5b5f73ffffffffffffffffffffffffffffffffffffffff168173ffffffffffffffffffffffffffffffffffffffff161461245a5761240e5f855f806121c4565b600160035f8373ffffffffffffffffffffffffffffffffffffffff1673ffffffffffffffffffffffffffffffffffffffff1681526020019081526020015f205f82825403925050819055505b5f73ffffffffffffffffffffffffffffffffffffffff168573ffffffffffffffffffffffffffffffffffffffff16146124d957600160035f8773ffffffffffffffffffffffffffffffffffffffff1673ffffffffffffffffffffffffffffffffffffffff1681526020019081526020015f205f82825401925050819055505b8460025f8681526020019081526020015f205f6101000a81548173ffffffffffffffffffffffffffffffffffffffff021916908373ffffffffffffffffffffffffffffffffffffffff160217905550838573ffffffffffffffffffffffffffffffffffffffff168273ffffffffffffffffffffffffffffffffffffffff167fddf252ad1be2c89b69c2b068fc378daa952ba7f163c4a11628f55a4df523b3ef60405160405180910390a4809150509392505050565b60088054905060095f8381526020019081526020015f2081905550600881908060018154018082558091505060019003905f5260205f20015f909190919091505550565b5f6125dc8361109d565b90505f60075f8481526020019081526020015f205490505f60065f8673ffffffffffffffffffffffffffffffffffffffff1673ffffffffffffffffffffffffffffffffffffffff1681526020019081526020015f20905082821461267b575f815f8581526020019081526020015f2054905080825f8581526020019081526020015f20819055508260075f8381526020019081526020015f2081905550505b60075f8581526020019081526020015f205f9055805f8481526020019081526020015f205f90555050505050565b5f60016008805490506126bc9190613b3f565b90505f60095f8481526020019081526020015f205490505f600883815481106126e8576126e7613c92565b5b905f5260205f2001549050806008838154811061270857612707613c92565b5b905f5260205f2001819055508160095f8381526020019081526020015f208190555060095f8581526020019081526020015f205f905560088054806127505761274f613f52565b5b600190038181905f5260205f20015f9055905550505050565b5f60016127758461109d565b61277f9190613b3f565b90508160065f8573ffffffffffffffffffffffffffffffffffffffff1673ffffffffffffffffffffffffffffffffffffffff1681526020019081526020015f205f8381526020019081526020015f20819055508060075f8481526020019081526020015f2081905550505050565b5f805f90507a184f03e93ff9f4daa797ed6e38ed64bf6a1f0100000000000000008310612849577a184f03e93ff9f4daa797ed6e38ed64bf6a1f010000000000000000838161283f5761283e613f25565b5b0492506040810190505b6d04ee2d6d415b85acef81000000008310612886576d04ee2d6d415b85acef8100000000838161287c5761287b613f25565b5b0492506020810190505b662386f26fc1000083106128b557662386f26fc1000083816128ab576128aa613f25565b5b0492506010810190505b6305f5e10083106128de576305f5e10083816128d4576128d3613f25565b5b0492506008810190505b61271083106129035761271083816128f9576128f8613f25565b5b0492506004810190505b60648310612926576064838161291c5761291b613f25565b5b0492506002810190505b600a8310612935576001810190505b80915050919050565b5f73ffffffffffffffffffffffffffffffffffffffff168273ffffffffffffffffffffffffffffffffffffffff16036129ae575f6040517f64a0ae920000000000000000000000000000000000000000000000000000000081526004016129a59190612ec4565b60405180910390fd5b5f6129ba83835f611a36565b90505f73ffffffffffffffffffffffffffffffffffffffff168173ffffffffffffffffffffffffffffffffffffffff1614612a2c575f6040517f73c6ac6e000000000000000000000000000000000000000000000000000000008152600401612a239190612ec4565b60405180910390fd5b505050565b612a3c838383612af4565b612aef575f73ffffffffffffffffffffffffffffffffffffffff168373ffffffffffffffffffffffffffffffffffffffff1603612ab057806040517f7e273289000000000000000000000000000000000000000000000000000000008152600401612aa79190612f54565b60405180910390fd5b81816040517f177e802f000000000000000000000000000000000000000000000000000000008152600401612ae6929190613c03565b60405180910390fd5b505050565b5f8073ffffffffffffffffffffffffffffffffffffffff168373ffffffffffffffffffffffffffffffffffffffff1614158015612bab57508273ffffffffffffffffffffffffffffffffffffffff168473ffffffffffffffffffffffffffffffffffffffff161480612b6c5750612b6b8484611674565b5b80612baa57508273ffffffffffffffffffffffffffffffffffffffff16612b92836119e4565b73ffffffffffffffffffffffffffffffffffffffff16145b5b90509392505050565b5f604051905090565b5f80fd5b5f80fd5b5f80fd5b5f80fd5b5f80fd5b5f8083601f840112612be657612be5612bc5565b5b8235905067ffffffffffffffff811115612c0357612c02612bc9565b5b602083019150836001820283011115612c1f57612c1e612bcd565b5b9250929050565b5f819050919050565b612c3881612c26565b8114612c42575f80fd5b50565b5f81359050612c5381612c2f565b92915050565b5f819050919050565b612c6b81612c59565b8114612c75575f80fd5b50565b5f81359050612c8681612c62565b92915050565b5f805f8060608587031215612ca457612ca3612bbd565b5b5f85013567ffffffffffffffff811115612cc157612cc0612bc1565b5b612ccd87828801612bd1565b94509450506020612ce087828801612c45565b9250506040612cf187828801612c78565b91505092959194509250565b5f7fffffffff0000000000000000000000000000000000000000000000000000000082169050919050565b612d3181612cfd565b8114612d3b575f80fd5b50565b5f81359050612d4c81612d28565b92915050565b5f60208284031215612d6757612d66612bbd565b5b5f612d7484828501612d3e565b91505092915050565b5f8115159050919050565b612d9181612d7d565b82525050565b5f602082019050612daa5f830184612d88565b92915050565b5f81519050919050565b5f82825260208201905092915050565b5f5b83811015612de7578082015181840152602081019050612dcc565b5f8484015250505050565b5f601f19601f8301169050919050565b5f612e0c82612db0565b612e168185612dba565b9350612e26818560208601612dca565b612e2f81612df2565b840191505092915050565b5f6020820190508181035f830152612e528184612e02565b905092915050565b5f60208284031215612e6f57612e6e612bbd565b5b5f612e7c84828501612c78565b91505092915050565b5f73ffffffffffffffffffffffffffffffffffffffff82169050919050565b5f612eae82612e85565b9050919050565b612ebe81612ea4565b82525050565b5f602082019050612ed75f830184612eb5565b92915050565b612ee681612ea4565b8114612ef0575f80fd5b50565b5f81359050612f0181612edd565b92915050565b5f8060408385031215612f1d57612f1c612bbd565b5b5f612f2a85828601612ef3565b9250506020612f3b85828601612c78565b9150509250929050565b612f4e81612c59565b82525050565b5f602082019050612f675f830184612f45565b92915050565b5f805f60608486031215612f8457612f83612bbd565b5b5f612f9186828701612ef3565b9350506020612fa286828701612ef3565b9250506040612fb386828701612c78565b9150509250925092565b5f80fd5b7f4e487b71000000000000000000000000000000000000000000000000000000005f52604160045260245ffd5b612ff782612df2565b810181811067ffffffffffffffff8211171561301657613015612fc1565b5b80604052505050565b5f613028612bb4565b90506130348282612fee565b919050565b5f67ffffffffffffffff82111561305357613052612fc1565b5b61305c82612df2565b9050602081019050919050565b828183375f83830152505050565b5f61308961308484613039565b61301f565b9050828152602081018484840111156130a5576130a4612fbd565b5b6130b0848285613069565b509392505050565b5f82601f8301126130cc576130cb612bc5565b5b81356130dc848260208601613077565b91505092915050565b5f602082840312156130fa576130f9612bbd565b5b5f82013567ffffffffffffffff81111561311757613116612bc1565b5b613123848285016130b8565b91505092915050565b5f6020828403121561314157613140612bbd565b5b5f61314e84828501612ef3565b91505092915050565b5f6020828403121561316c5761316b612bbd565b5b5f61317984828501612c45565b91505092915050565b61318b81612d7d565b8114613195575f80fd5b50565b5f813590506131a681613182565b92915050565b5f80604083850312156131c2576131c1612bbd565b5b5f6131cf85828601612ef3565b92505060206131e085828601613198565b9150509250929050565b5f805f6040848603121561320157613200612bbd565b5b5f84013567ffffffffffffffff81111561321e5761321d612bc1565b5b61322a86828701612bd1565b9350935050602061323d86828701612c78565b9150509250925092565b5f67ffffffffffffffff82111561326157613260612fc1565b5b61326a82612df2565b9050602081019050919050565b5f61328961328484613247565b61301f565b9050828152602081018484840111156132a5576132a4612fbd565b5b6132b0848285613069565b509392505050565b5f82601f8301126132cc576132cb612bc5565b5b81356132dc848260208601613277565b91505092915050565b5f805f80608085870312156132fd576132fc612bbd565b5b5f61330a87828801612ef3565b945050602061331b87828801612ef3565b935050604061332c87828801612c78565b925050606085013567ffffffffffffffff81111561334d5761334c612bc1565b5b613359878288016132b8565b91505092959194509250565b5f806040838503121561337b5761337a612bbd565b5b5f61338885828601612ef3565b925050602061339985828601612ef3565b9150509250929050565b5f81905092915050565b5f6133b883856133a3565b93506133c5838584613069565b82840190509392505050565b5f8160601b9050919050565b5f6133e7826133d1565b9050919050565b5f6133f8826133dd565b9050919050565b61341061340b82612ea4565b6133ee565b82525050565b5f819050919050565b61343061342b82612c26565b613416565b82525050565b5f6134428286886133ad565b915061344e82856133ff565b60148201915061345e828461341f565b60208201915081905095945050505050565b7f4e6f20636f6d6d69746d656e7420666f756e64000000000000000000000000005f82015250565b5f6134a4601383612dba565b91506134af82613470565b602082019050919050565b5f6020820190508181035f8301526134d181613498565b9050919050565b7f4e487b71000000000000000000000000000000000000000000000000000000005f52601160045260245ffd5b5f61350f82612c59565b915061351a83612c59565b9250828201905080821115613532576135316134d8565b5b92915050565b7f436f6d6d69746d656e7420746f6f206e65772c20776169742031206d696e75745f8201527f6500000000000000000000000000000000000000000000000000000000000000602082015250565b5f613592602183612dba565b915061359d82613538565b604082019050919050565b5f6020820190508181035f8301526135bf81613586565b9050919050565b7f436f6d6d69746d656e74206578706972656400000000000000000000000000005f82015250565b5f6135fa601283612dba565b9150613605826135c6565b602082019050919050565b5f6020820190508181035f830152613627816135ee565b9050919050565b5f61363a8284866133ad565b91508190509392505050565b7f446f6d61696e20616c72656164792072656769737465726564000000000000005f82015250565b5f61367a601983612dba565b915061368582613646565b602082019050919050565b5f6020820190508181035f8301526136a78161366e565b9050919050565b7f496e76616c6964206e616d65206c656e677468000000000000000000000000005f82015250565b5f6136e2601383612dba565b91506136ed826136ae565b602082019050919050565b5f6020820190508181035f83015261370f816136d6565b9050919050565b7f496e76616c6964206475726174696f6e000000000000000000000000000000005f82015250565b5f61374a601083612dba565b915061375582613716565b602082019050919050565b5f6020820190508181035f8301526137778161373e565b9050919050565b5f61378882612c59565b915061379383612c59565b92508282026137a181612c59565b915082820484148315176137b8576137b76134d8565b5b5092915050565b7f496e73756666696369656e74207061796d656e740000000000000000000000005f82015250565b5f6137f3601483612dba565b91506137fe826137bf565b602082019050919050565b5f6020820190508181035f830152613820816137e7565b9050919050565b5f61383182612c59565b91507fffffffffffffffffffffffffffffffffffffffffffffffffffffffffffffffff8203613863576138626134d8565b5b600182019050919050565b5f82905092915050565b7f4e487b71000000000000000000000000000000000000000000000000000000005f52602260045260245ffd5b5f60028204905060018216806138bc57607f821691505b6020821081036138cf576138ce613878565b5b50919050565b5f819050815f5260205f209050919050565b5f6020601f8301049050919050565b5f82821b905092915050565b5f600883026139317fffffffffffffffffffffffffffffffffffffffffffffffffffffffffffffffff826138f6565b61393b86836138f6565b95508019841693508086168417925050509392505050565b5f819050919050565b5f61397661397161396c84612c59565b613953565b612c59565b9050919050565b5f819050919050565b61398f8361395c565b6139a361399b8261397d565b848454613902565b825550505050565b5f90565b6139b76139ab565b6139c2818484613986565b505050565b5b818110156139e5576139da5f826139af565b6001810190506139c8565b5050565b601f821115613a2a576139fb816138d5565b613a04846138e7565b81016020851015613a13578190505b613a27613a1f856138e7565b8301826139c7565b50505b505050565b5f82821c905092915050565b5f613a4a5f1984600802613a2f565b1980831691505092915050565b5f613a628383613a3b565b9150826002028217905092915050565b613a7c838361386e565b67ffffffffffffffff811115613a9557613a94612fc1565b5b613a9f82546138a5565b613aaa8282856139e9565b5f601f831160018114613ad7575f8415613ac5578287013590505b613acf8582613a57565b865550613b36565b601f198416613ae5866138d5565b5f5b82811015613b0c57848901358255600182019150602085019450602081019050613ae7565b86831015613b295784890135613b25601f891682613a3b565b8355505b6001600288020188555050505b50505050505050565b5f613b4982612c59565b9150613b5483612c59565b9250828203905081811115613b6c57613b6b6134d8565b5b92915050565b5f613b7d8385612dba565b9350613b8a838584613069565b613b9383612df2565b840190509392505050565b5f6040820190508181035f830152613bb7818587613b72565b9050613bc66020830184612f45565b949350505050565b5f606082019050613be15f830186612eb5565b613bee6020830185612f45565b613bfb6040830184612eb5565b949350505050565b5f604082019050613c165f830185612eb5565b613c236020830184612f45565b9392505050565b7f4e6f2066756e647320746f2077697468647261770000000000000000000000005f82015250565b5f613c5e601483612dba565b9150613c6982613c2a565b602082019050919050565b5f6020820190508181035f830152613c8b81613c52565b9050919050565b7f4e487b71000000000000000000000000000000000000000000000000000000005f52603260045260245ffd5b7f446f6d61696e206e6f74207265676973746572656400000000000000000000005f82015250565b5f613cf3601583612dba565b9150613cfe82613cbf565b602082019050919050565b5f6020820190508181035f830152613d2081613ce7565b9050919050565b7f4e6f7420646f6d61696e206f776e6572000000000000000000000000000000005f82015250565b5f613d5b601083612dba565b9150613d6682613d27565b602082019050919050565b5f6020820190508181035f830152613d8881613d4f565b9050919050565b5f613d9982612db0565b613da381856133a3565b9350613db3818560208601612dca565b80840191505092915050565b5f613dca8285613d8f565b9150613dd68284613d8f565b91508190509392505050565b7f416c726561647920636f6d6d69747465640000000000000000000000000000005f82015250565b5f613e16601183612dba565b9150613e2182613de2565b602082019050919050565b5f6020820190508181035f830152613e4381613e0a565b9050919050565b5f81519050919050565b5f82825260208201905092915050565b5f613e6e82613e4a565b613e788185613e54565b9350613e88818560208601612dca565b613e9181612df2565b840191505092915050565b5f608082019050613eaf5f830187612eb5565b613ebc6020830186612eb5565b613ec96040830185612f45565b8181036060830152613edb8184613e64565b905095945050505050565b5f81519050613ef481612d28565b92915050565b5f60208284031215613f0f57613f0e612bbd565b5b5f613f1c84828501613ee6565b91505092915050565b7f4e487b71000000000000000000000000000000000000000000000000000000005f52601260045260245ffd5b7f4e487b71000000000000000000000000000000000000000000000000000000005f52603160045260245ffdfea26469706673582212209d61afd9fe45a2ab95985a1445117413ebed1bb6bf7808e73827cabed73f382764736f6c63430008180033",
  "linkReferences": {},
  "deployedLinkReferences": {}
}